{
  "contractName": "Campaign",
  "abi": [
    {
      "inputs": [
        {
          "internalType": "address",
          "name": "owner",
          "type": "address"
        },
        {
          "internalType": "uint256",
          "name": "minimumFund",
          "type": "uint256"
        },
        {
          "internalType": "uint256",
          "name": "threshold",
          "type": "uint256"
        },
        {
          "internalType": "string",
          "name": "name",
          "type": "string"
        },
        {
          "internalType": "string",
          "name": "description",
          "type": "string"
        },
        {
          "internalType": "string",
          "name": "image",
          "type": "string"
        },
        {
          "internalType": "uint256",
          "name": "targetFund",
          "type": "uint256"
        }
      ],
      "stateMutability": "nonpayable",
      "type": "constructor"
    },
    {
      "anonymous": false,
      "inputs": [
        {
          "indexed": false,
          "internalType": "address",
          "name": "owner",
          "type": "address"
        },
        {
          "indexed": false,
          "internalType": "string",
          "name": "name",
          "type": "string"
        },
        {
          "indexed": false,
          "internalType": "string",
          "name": "description",
          "type": "string"
        },
        {
          "indexed": false,
          "internalType": "uint256",
          "name": "targetAmount",
          "type": "uint256"
        },
        {
          "indexed": false,
          "internalType": "uint256",
          "name": "fundReceivedSoFar",
          "type": "uint256"
        }
      ],
      "name": "CampaignFinished",
      "type": "event"
    },
    {
      "anonymous": false,
      "inputs": [
        {
          "indexed": false,
          "internalType": "address",
          "name": "contributor",
          "type": "address"
        },
        {
          "indexed": false,
          "internalType": "uint256",
          "name": "amount",
          "type": "uint256"
        },
        {
          "indexed": false,
          "internalType": "uint256",
          "name": "fundReceivedSoFar",
          "type": "uint256"
        }
      ],
      "name": "FundingReceived",
      "type": "event"
    },
    {
      "anonymous": false,
      "inputs": [
        {
          "indexed": false,
          "internalType": "address",
          "name": "recipient",
          "type": "address"
        },
        {
          "indexed": false,
          "internalType": "uint256",
          "name": "amount",
          "type": "uint256"
        }
      ],
      "name": "OwnerPaid",
      "type": "event"
    },
    {
      "inputs": [
        {
          "internalType": "string",
          "name": "description",
          "type": "string"
        },
        {
          "internalType": "uint256",
          "name": "requestFund",
          "type": "uint256"
        },
        {
          "internalType": "uint256",
          "name": "weighted",
          "type": "uint256"
        }
      ],
      "name": "createRequest",
      "outputs": [],
      "stateMutability": "nonpayable",
      "type": "function"
    },
    {
      "inputs": [
        {
          "internalType": "uint256",
          "name": "index",
          "type": "uint256"
        }
      ],
      "name": "approveRequest",
      "outputs": [],
      "stateMutability": "nonpayable",
      "type": "function"
    },
    {
      "inputs": [
        {
          "internalType": "uint256",
          "name": "index",
          "type": "uint256"
        }
      ],
      "name": "finalizeRequest",
      "outputs": [],
      "stateMutability": "payable",
      "type": "function"
    },
    {
      "inputs": [],
      "name": "receiveFund",
      "outputs": [],
      "stateMutability": "payable",
      "type": "function"
    },
    {
      "inputs": [],
      "name": "showCurrentBalance",
      "outputs": [
        {
          "internalType": "uint256",
          "name": "",
          "type": "uint256"
        }
      ],
      "stateMutability": "view",
      "type": "function"
    },
    {
      "inputs": [],
      "name": "getDetails",
      "outputs": [
        {
          "internalType": "uint256",
          "name": "minPayment",
          "type": "uint256"
        },
        {
          "internalType": "uint256",
          "name": "threshold",
          "type": "uint256"
        },
        {
          "internalType": "address",
          "name": "owner",
          "type": "address"
        },
        {
          "internalType": "string",
          "name": "name",
          "type": "string"
        },
        {
          "internalType": "string",
          "name": "description",
          "type": "string"
        },
        {
          "internalType": "string",
          "name": "image",
          "type": "string"
        },
        {
          "internalType": "uint256",
          "name": "targetAmt",
          "type": "uint256"
        },
        {
          "internalType": "uint256",
          "name": "fundReceived",
          "type": "uint256"
        },
        {
          "internalType": "enum Campaign.State",
          "name": "campaignState",
          "type": "uint8"
        },
        {
          "internalType": "uint256",
          "name": "balance",
          "type": "uint256"
        },
        {
          "internalType": "uint256",
          "name": "contributorsCount",
          "type": "uint256"
        },
        {
          "internalType": "uint256",
          "name": "approversCount",
          "type": "uint256"
        }
      ],
      "stateMutability": "view",
      "type": "function"
    }
  ],
  "bytecode": "0x60806040523480156200001157600080fd5b506040516200255338038062002553833981810160405281019062000037919062000418565b856000819055508460018190555086600260006101000a81548173ffffffffffffffffffffffffffffffffffffffff021916908373ffffffffffffffffffffffffffffffffffffffff16021790555083600390805190602001906200009e9291906200012b565b508260049080519060200190620000b79291906200012b565b508160059080519060200190620000d09291906200012b565b50806006819055506000600a819055506000600b819055506000600d819055506000600e60006101000a81548160ff0219169083600381111562000119576200011862000528565b5b021790555050505050505050620005bb565b828054620001399062000586565b90600052602060002090601f0160209004810192826200015d5760008555620001a9565b82601f106200017857805160ff1916838001178555620001a9565b82800160010185558215620001a9579182015b82811115620001a85782518255916020019190600101906200018b565b5b509050620001b89190620001bc565b5090565b5b80821115620001d7576000816000905550600101620001bd565b5090565b6000604051905090565b600080fd5b600080fd5b600073ffffffffffffffffffffffffffffffffffffffff82169050919050565b60006200021c82620001ef565b9050919050565b6200022e816200020f565b81146200023a57600080fd5b50565b6000815190506200024e8162000223565b92915050565b6000819050919050565b620002698162000254565b81146200027557600080fd5b50565b60008151905062000289816200025e565b92915050565b600080fd5b600080fd5b6000601f19601f8301169050919050565b7f4e487b7100000000000000000000000000000000000000000000000000000000600052604160045260246000fd5b620002e48262000299565b810181811067ffffffffffffffff82111715620003065762000305620002aa565b5b80604052505050565b60006200031b620001db565b9050620003298282620002d9565b919050565b600067ffffffffffffffff8211156200034c576200034b620002aa565b5b620003578262000299565b9050602081019050919050565b60005b838110156200038457808201518184015260208101905062000367565b8381111562000394576000848401525b50505050565b6000620003b1620003ab846200032e565b6200030f565b905082815260208101848484011115620003d057620003cf62000294565b5b620003dd84828562000364565b509392505050565b600082601f830112620003fd57620003fc6200028f565b5b81516200040f8482602086016200039a565b91505092915050565b600080600080600080600060e0888a0312156200043a5762000439620001e5565b5b60006200044a8a828b016200023d565b97505060206200045d8a828b0162000278565b9650506040620004708a828b0162000278565b955050606088015167ffffffffffffffff811115620004945762000493620001ea565b5b620004a28a828b01620003e5565b945050608088015167ffffffffffffffff811115620004c657620004c5620001ea565b5b620004d48a828b01620003e5565b93505060a088015167ffffffffffffffff811115620004f857620004f7620001ea565b5b620005068a828b01620003e5565b92505060c0620005198a828b0162000278565b91505092959891949750929550565b7f4e487b7100000000000000000000000000000000000000000000000000000000600052602160045260246000fd5b7f4e487b7100000000000000000000000000000000000000000000000000000000600052602260045260246000fd5b600060028204905060018216806200059f57607f821691505b602082108103620005b557620005b462000557565b5b50919050565b611f8880620005cb6000396000f3fe6080604052600436106100555760003560e01c8063034410061461005a5780636b3ccad314610076578063b9977dc4146100a1578063d7d1bbdb146100ab578063fbbf93a0146100d4578063fbccc8411461010a575b600080fd5b610074600480360381019061006f91906112a9565b610133565b005b34801561008257600080fd5b5061008b6104eb565b60405161009891906112e5565b60405180910390f35b6100a96104f3565b005b3480156100b757600080fd5b506100d260048036038101906100cd91906112a9565b610931565b005b3480156100e057600080fd5b506100e9610bf3565b6040516101019c9b9a99989796959493929190611451565b60405180910390f35b34801561011657600080fd5b50610131600480360381019061012c9190611655565b610e13565b005b600260009054906101000a900473ffffffffffffffffffffffffffffffffffffffff1673ffffffffffffffffffffffffffffffffffffffff163373ffffffffffffffffffffffffffffffffffffffff16146101c3576040517f08c379a00000000000000000000000000000000000000000000000000000000081526004016101ba90611736565b60405180910390fd5b6000600c600083815260200190815260200160002060030154600c6000848152602001908152602001600020600501546101fd9190611785565b600c60008481526020019081526020016000206004015461021e91906117df565b9050600c600083815260200190815260200160002060020160009054906101000a900460ff1615610284576040517f08c379a000000000000000000000000000000000000000000000000000000000815260040161027b906118a7565b60405180910390fd5b6002600a5461029391906118f6565b81116102d4576040517f08c379a00000000000000000000000000000000000000000000000000000000081526004016102cb90611973565b60405180910390fd5b600c60008381526020019081526020016000206001015447101561032d576040517f08c379a000000000000000000000000000000000000000000000000000000000815260040161032490611a2b565b60405180910390fd5b600260009054906101000a900473ffffffffffffffffffffffffffffffffffffffff1673ffffffffffffffffffffffffffffffffffffffff166108fc600c6000858152602001908152602001600020600101549081150290604051600060405180830381858888f193505050501580156103ab573d6000803e3d6000fd5b506001600c600084815260200190815260200160002060020160006101000a81548160ff0219169083151502179055507f87165f4f517881166a6bb213c16f6ad92af35d305b83605c58fe08dd92c01518600260009054906101000a900473ffffffffffffffffffffffffffffffffffffffff16600c600085815260200190815260200160002060010154604051610444929190611a4b565b60405180910390a1600047036104e7576003600e60006101000a81548160ff0219169083600381111561047a576104796113da565b5b02179055507f154c50f15a4f24442c7a5c54c0b52fb5d9a41a39f4a2d9a990cefad14f2ecd6f600260009054906101000a900473ffffffffffffffffffffffffffffffffffffffff16600360046006546007546040516104de959493929190611b69565b60405180910390a15b5050565b600047905090565b600260009054906101000a900473ffffffffffffffffffffffffffffffffffffffff1673ffffffffffffffffffffffffffffffffffffffff163373ffffffffffffffffffffffffffffffffffffffff1603610583576040517f08c379a000000000000000000000000000000000000000000000000000000000815260040161057a90611c62565b60405180910390fd5b6003806003811115610598576105976113da565b5b600e60009054906101000a900460ff1660038111156105ba576105b96113da565b5b036105fa576040517f08c379a00000000000000000000000000000000000000000000000000000000081526004016105f190611cce565b60405180910390fd5b60005434101561063f576040517f08c379a000000000000000000000000000000000000000000000000000000000815260040161063690611d60565b60405180910390fd5b6000600860003373ffffffffffffffffffffffffffffffffffffffff1673ffffffffffffffffffffffffffffffffffffffff1681526020019081526020016000206001015411156106e85734600860003373ffffffffffffffffffffffffffffffffffffffff1673ffffffffffffffffffffffffffffffffffffffff16815260200190815260200160002060010160008282546106dc91906117df565b92505081905550610783565b604051806040016040528060001515815260200134815250600860003373ffffffffffffffffffffffffffffffffffffffff1673ffffffffffffffffffffffffffffffffffffffff16815260200190815260200160002060008201518160000160006101000a81548160ff02191690831515021790555060208201518160010155905050600a6000815461077b90611d80565b919050819055505b60001515600860003373ffffffffffffffffffffffffffffffffffffffff1673ffffffffffffffffffffffffffffffffffffffff16815260200190815260200160002060000160009054906101000a900460ff16151514801561082a5750600154600860003373ffffffffffffffffffffffffffffffffffffffff1673ffffffffffffffffffffffffffffffffffffffff1681526020019081526020016000206001015410155b156108a1576001600860003373ffffffffffffffffffffffffffffffffffffffff1673ffffffffffffffffffffffffffffffffffffffff16815260200190815260200160002060000160006101000a81548160ff021916908315150217905550600b6000815461089990611d80565b919050819055505b34600760008282546108b391906117df565b92505081905550600654600754106108f1576002600e60006101000a81548160ff021916908360038111156108eb576108ea6113da565b5b02179055505b7f5cdc4ab8d637538ead6cc1904d4160343656c8c82bd266635cfd31ac008fffe0333460075460405161092693929190611dc8565b60405180910390a150565b600260009054906101000a900473ffffffffffffffffffffffffffffffffffffffff1673ffffffffffffffffffffffffffffffffffffffff163373ffffffffffffffffffffffffffffffffffffffff16036109c1576040517f08c379a00000000000000000000000000000000000000000000000000000000081526004016109b890611c62565b60405180910390fd5b6000600860003373ffffffffffffffffffffffffffffffffffffffff1673ffffffffffffffffffffffffffffffffffffffff1681526020019081526020016000206001015411610a46576040517f08c379a0000000000000000000000000000000000000000000000000000000008152600401610a3d90611e71565b60405180910390fd5b60001515610a548233610faa565b151514610a96576040517f08c379a0000000000000000000000000000000000000000000000000000000008152600401610a8d90611f03565b60405180910390fd5b610a9f33611163565b15610b4c57600c60008281526020019081526020016000206004016000815480929190610acb90611d80565b9190505550600c6000828152602001908152602001600020600701339080600181540180825580915050600190039060005260206000200160009091909190916101000a81548173ffffffffffffffffffffffffffffffffffffffff021916908373ffffffffffffffffffffffffffffffffffffffff160217905550610bf0565b600c60008281526020019081526020016000206005016000815480929190610b7390611d80565b9190505550600c6000828152602001908152602001600020600601339080600181540180825580915050600190039060005260206000200160009091909190916101000a81548173ffffffffffffffffffffffffffffffffffffffff021916908373ffffffffffffffffffffffffffffffffffffffff1602179055505b50565b600080600060608060606000806000806000806000549b506001549a50600260009054906101000a900473ffffffffffffffffffffffffffffffffffffffff16995060038054610c4290611aa3565b80601f0160208091040260200160405190810160405280929190818152602001828054610c6e90611aa3565b8015610cbb5780601f10610c9057610100808354040283529160200191610cbb565b820191906000526020600020905b815481529060010190602001808311610c9e57829003601f168201915b5050505050985060048054610ccf90611aa3565b80601f0160208091040260200160405190810160405280929190818152602001828054610cfb90611aa3565b8015610d485780601f10610d1d57610100808354040283529160200191610d48565b820191906000526020600020905b815481529060010190602001808311610d2b57829003601f168201915b5050505050975060058054610d5c90611aa3565b80601f0160208091040260200160405190810160405280929190818152602001828054610d8890611aa3565b8015610dd55780601f10610daa57610100808354040283529160200191610dd5565b820191906000526020600020905b815481529060010190602001808311610db857829003601f168201915b5050505050965060065495506007549450600e60009054906101000a900460ff169350479250600a549150600b549050909192939495969798999a9b565b600260009054906101000a900473ffffffffffffffffffffffffffffffffffffffff1673ffffffffffffffffffffffffffffffffffffffff163373ffffffffffffffffffffffffffffffffffffffff1614610ea3576040517f08c379a0000000000000000000000000000000000000000000000000000000008152600401610e9a90611736565b60405180910390fd5b6002806003811115610eb857610eb76113da565b5b600e60009054906101000a900460ff166003811115610eda57610ed96113da565b5b14610f1a576040517f08c379a0000000000000000000000000000000000000000000000000000000008152600401610f1190611cce565b60405180910390fd5b6000600c6000600d6000815480929190610f3390611d80565b919050558152602001908152602001600020905084816000019080519060200190610f5f9291906111bc565b5083816001018190555060008160020160006101000a81548160ff02191690831515021790555082816003018190555060008160040181905550600081600501819055505050505050565b6000610fb582611163565b1561108b576000600c600085815260200190815260200160002060070180549050905060005b81811015611084578373ffffffffffffffffffffffffffffffffffffffff16600c6000878152602001908152602001600020600701828154811061102257611021611f23565b5b9060005260206000200160009054906101000a900473ffffffffffffffffffffffffffffffffffffffff1673ffffffffffffffffffffffffffffffffffffffff16036110735760019250505061115d565b8061107d90611d80565b9050610fdb565b5050611158565b6000600c600085815260200190815260200160002060060180549050905060005b81811015611155578373ffffffffffffffffffffffffffffffffffffffff16600c600087815260200190815260200160002060060182815481106110f3576110f2611f23565b5b9060005260206000200160009054906101000a900473ffffffffffffffffffffffffffffffffffffffff1673ffffffffffffffffffffffffffffffffffffffff16036111445760019250505061115d565b8061114e90611d80565b90506110ac565b50505b600090505b92915050565b6000600860008373ffffffffffffffffffffffffffffffffffffffff1673ffffffffffffffffffffffffffffffffffffffff16815260200190815260200160002060000160009054906101000a900460ff169050919050565b8280546111c890611aa3565b90600052602060002090601f0160209004810192826111ea5760008555611231565b82601f1061120357805160ff1916838001178555611231565b82800160010185558215611231579182015b82811115611230578251825591602001919060010190611215565b5b50905061123e9190611242565b5090565b5b8082111561125b576000816000905550600101611243565b5090565b6000604051905090565b600080fd5b600080fd5b6000819050919050565b61128681611273565b811461129157600080fd5b50565b6000813590506112a38161127d565b92915050565b6000602082840312156112bf576112be611269565b5b60006112cd84828501611294565b91505092915050565b6112df81611273565b82525050565b60006020820190506112fa60008301846112d6565b92915050565b600073ffffffffffffffffffffffffffffffffffffffff82169050919050565b600061132b82611300565b9050919050565b61133b81611320565b82525050565b600081519050919050565b600082825260208201905092915050565b60005b8381101561137b578082015181840152602081019050611360565b8381111561138a576000848401525b50505050565b6000601f19601f8301169050919050565b60006113ac82611341565b6113b6818561134c565b93506113c681856020860161135d565b6113cf81611390565b840191505092915050565b7f4e487b7100000000000000000000000000000000000000000000000000000000600052602160045260246000fd5b6004811061141a576114196113da565b5b50565b600081905061142b82611409565b919050565b600061143b8261141d565b9050919050565b61144b81611430565b82525050565b600061018082019050611467600083018f6112d6565b611474602083018e6112d6565b611481604083018d611332565b8181036060830152611493818c6113a1565b905081810360808301526114a7818b6113a1565b905081810360a08301526114bb818a6113a1565b90506114ca60c08301896112d6565b6114d760e08301886112d6565b6114e5610100830187611442565b6114f36101208301866112d6565b6115016101408301856112d6565b61150f6101608301846112d6565b9d9c50505050505050505050505050565b600080fd5b600080fd5b7f4e487b7100000000000000000000000000000000000000000000000000000000600052604160045260246000fd5b61156282611390565b810181811067ffffffffffffffff821117156115815761158061152a565b5b80604052505050565b600061159461125f565b90506115a08282611559565b919050565b600067ffffffffffffffff8211156115c0576115bf61152a565b5b6115c982611390565b9050602081019050919050565b82818337600083830152505050565b60006115f86115f3846115a5565b61158a565b90508281526020810184848401111561161457611613611525565b5b61161f8482856115d6565b509392505050565b600082601f83011261163c5761163b611520565b5b813561164c8482602086016115e5565b91505092915050565b60008060006060848603121561166e5761166d611269565b5b600084013567ffffffffffffffff81111561168c5761168b61126e565b5b61169886828701611627565b93505060206116a986828701611294565b92505060406116ba86828701611294565b9150509250925092565b7f4f6f70732120416374696f6e206973206f6e6c7920617661696c61626c65207460008201527f6f2063616d706169676e2773206f776e65722e00000000000000000000000000602082015250565b600061172060338361134c565b915061172b826116c4565b604082019050919050565b6000602082019050818103600083015261174f81611713565b9050919050565b7f4e487b7100000000000000000000000000000000000000000000000000000000600052601160045260246000fd5b600061179082611273565b915061179b83611273565b9250817fffffffffffffffffffffffffffffffffffffffffffffffffffffffffffffffff04831182151516156117d4576117d3611756565b5b828202905092915050565b60006117ea82611273565b91506117f583611273565b9250827fffffffffffffffffffffffffffffffffffffffffffffffffffffffffffffffff0382111561182a57611829611756565b5b828201905092915050565b7f54686520726571756573742068617320616c7265616479206265656e2066696e60008201527f616c697a65642e00000000000000000000000000000000000000000000000000602082015250565b600061189160278361134c565b915061189c82611835565b604082019050919050565b600060208201905081810360008301526118c081611884565b9050919050565b7f4e487b7100000000000000000000000000000000000000000000000000000000600052601260045260246000fd5b600061190182611273565b915061190c83611273565b92508261191c5761191b6118c7565b5b828204905092915050565b7f54686520766f74696e6720686173206e6f7420706173736564207965742e0000600082015250565b600061195d601e8361134c565b915061196882611927565b602082019050919050565b6000602082019050818103600083015261198c81611950565b9050919050565b7f54686520746f74616c20636f6e747269627574696f6e20746f2074686973206360008201527f616d706169676e206973206e6f7420656e6f75676820746f207061792074686560208201527f20726571756573742e0000000000000000000000000000000000000000000000604082015250565b6000611a1560498361134c565b9150611a2082611993565b606082019050919050565b60006020820190508181036000830152611a4481611a08565b9050919050565b6000604082019050611a606000830185611332565b611a6d60208301846112d6565b9392505050565b7f4e487b7100000000000000000000000000000000000000000000000000000000600052602260045260246000fd5b60006002820490506001821680611abb57607f821691505b602082108103611ace57611acd611a74565b5b50919050565b60008190508160005260206000209050919050565b60008154611af681611aa3565b611b00818661134c565b94506001821660008114611b1b5760018114611b2d57611b60565b60ff1983168652602086019350611b60565b611b3685611ad4565b60005b83811015611b5857815481890152600182019150602081019050611b39565b808801955050505b50505092915050565b600060a082019050611b7e6000830188611332565b8181036020830152611b908187611ae9565b90508181036040830152611ba48186611ae9565b9050611bb360608301856112d6565b611bc060808301846112d6565b9695505050505050565b7f4f6f7073212043616d706169676e2063726561746f727320617265206e6f742060008201527f616c6c6f77656420746f2066756e64207468656972206f776e2063616d70616960208201527f676e732e00000000000000000000000000000000000000000000000000000000604082015250565b6000611c4c60448361134c565b9150611c5782611bca565b606082019050919050565b60006020820190508181036000830152611c7b81611c3f565b9050919050565b7f57726f6e672063616d706169676e207374617465210000000000000000000000600082015250565b6000611cb860158361134c565b9150611cc382611c82565b602082019050919050565b60006020820190508181036000830152611ce781611cab565b9050919050565b7f4f6f7073212046756e64696e6720646f65736e2774206d65657420746865206d60008201527f696e696d756d20636f6e747269627574696f6e2e000000000000000000000000602082015250565b6000611d4a60348361134c565b9150611d5582611cee565b604082019050919050565b60006020820190508181036000830152611d7981611d3d565b9050919050565b6000611d8b82611273565b91507fffffffffffffffffffffffffffffffffffffffffffffffffffffffffffffffff8203611dbd57611dbc611756565b5b600182019050919050565b6000606082019050611ddd6000830186611332565b611dea60208301856112d6565b611df760408301846112d6565b949350505050565b7f536f72727920796f7520617265206e6f7420656c696769626c6520746f20617060008201527f70726f76652074686520726571756573742e0000000000000000000000000000602082015250565b6000611e5b60328361134c565b9150611e6682611dff565b604082019050919050565b60006020820190508181036000830152611e8a81611e4e565b9050919050565b7f596f75206861766520766f74656420746865207265717565737420616c72656160008201527f64792e0000000000000000000000000000000000000000000000000000000000602082015250565b6000611eed60238361134c565b9150611ef882611e91565b604082019050919050565b60006020820190508181036000830152611f1c81611ee0565b9050919050565b7f4e487b7100000000000000000000000000000000000000000000000000000000600052603260045260246000fdfea26469706673582212204bfaa727a3d635b32dd3e61fce6e5826dd3540ef29bc288bd9154eef59c8d21464736f6c634300080d0033",
  "immutableReferences": {},
  "source": "// SPDX-License-Identifier: GPL-3.0\r\n\r\npragma solidity >=0.8.0 <0.9.0;\r\n\r\n/**\r\n * @title CampaignFactory\r\n * @dev Store & retrieve Crowdfunding campaigns in a variable\r\n */\r\n\r\ncontract CampaignFactory {\r\n\r\n    Campaign[] deployedCampaigns;\r\n\r\n    event CampaignCreated(address owner, uint minimumFund, uint threshold, string name, string description, string image, uint targetFund);\r\n\r\n    function createCampaign(uint minimumFund, uint threshold, string memory name, \r\n        string memory description, string memory image, uint targetFund) external {\r\n\r\n        Campaign newCampaign = new Campaign(msg.sender, minimumFund, threshold, name, description, image, targetFund);\r\n        deployedCampaigns.push(newCampaign);\r\n\r\n        emit CampaignCreated(msg.sender, minimumFund, threshold, name, description, image, targetFund);\r\n    }\r\n\r\n    function getDeployedCampaigns() public view returns (Campaign[] memory) {\r\n        return deployedCampaigns;\r\n    }\r\n    \r\n}\r\n\r\ncontract Campaign {\r\n    struct Contributor {\r\n        bool isApprover;\r\n        uint contribution;\r\n    }\r\n\r\n    enum State {\r\n        Fundraising,\r\n        Expired,\r\n        Successful,\r\n        Finished\r\n    }\r\n\r\n    struct Request {\r\n        string description;\r\n        uint requestFund;\r\n        bool isCompleted;\r\n        uint weighted;\r\n        uint nonApproverCount;\r\n        uint approverCount;\r\n        address[] nonApprovers;\r\n        address[] approvers;\r\n    }\r\n\r\n    uint minimumPayment;\r\n    uint thresholdToBeApprover;\r\n    address campaignOwner;\r\n    string campaignName;\r\n    string campaignDescription;\r\n    string imageUrl;\r\n    uint targetAmount;\r\n    uint fundReceivedSoFar;\r\n    mapping(address => Contributor) contributors;\r\n    address[] approvers;\r\n    uint contributorCount;\r\n    uint approverCount;\r\n    mapping (uint => Request) requests;\r\n    uint requestIndex;\r\n    State state;\r\n\r\n    // Event that will be emitted whenever funding will be received\r\n    event FundingReceived(address contributor, uint amount, uint fundReceivedSoFar);\r\n    // Event that will be emitted whenever the project starter has received the funds\r\n    event OwnerPaid(address recipient, uint amount);\r\n    event CampaignFinished(address owner, string name, string description, uint targetAmount, uint fundReceivedSoFar);\r\n\r\n    constructor(address owner, uint minimumFund, uint threshold, string memory name, string memory description, string memory image, uint targetFund) {\r\n        minimumPayment = minimumFund;\r\n        thresholdToBeApprover = threshold;\r\n        campaignOwner = owner;\r\n        campaignName = name;\r\n        campaignDescription = description;\r\n        imageUrl = image;\r\n        targetAmount = targetFund;\r\n        contributorCount = 0;\r\n        approverCount = 0;\r\n        requestIndex = 0;\r\n        state = State.Fundraising;\r\n    }\r\n\r\n    modifier onlyOwner() {\r\n        require(msg.sender == campaignOwner, \"Oops! Action is only available to campaign's owner.\");\r\n        _;\r\n    }\r\n\r\n    modifier excludeOwner() {\r\n         require(msg.sender != campaignOwner, \"Oops! Campaign creators are not allowed to fund their own campaigns.\");\r\n         _;\r\n    }\r\n\r\n    // Modifier to check current state\r\n    modifier inState(State _state) {\r\n        require(state == _state, \"Wrong campaign state!\");\r\n        _;\r\n    }\r\n    modifier notInState(State _state) {\r\n        require(state != _state, \"Wrong campaign state!\");\r\n        _;\r\n    }\r\n\r\n    function createRequest(string memory description, uint requestFund, uint weighted) public onlyOwner inState(State.Successful) {\r\n        Request storage newRequest = requests[requestIndex++];\r\n        newRequest.description = description;\r\n        newRequest.requestFund = requestFund;\r\n        newRequest.isCompleted = false;\r\n        newRequest.weighted  = weighted;\r\n        newRequest.nonApproverCount = 0;\r\n        newRequest.approverCount = 0;\r\n    }\r\n\r\n    function approveRequest(uint index) public excludeOwner {\r\n        require(contributors[msg.sender].contribution > 0, \"Sorry you are not eligible to approve the request.\");\r\n        require(hasVotedBefore(index, msg.sender) == false, \"You have voted the request already.\");\r\n        if (isApprover(msg.sender)) {\r\n            requests[index].nonApproverCount++;\r\n            requests[index].approvers.push(msg.sender);\r\n        }\r\n        else {\r\n            requests[index].approverCount++;\r\n            requests[index].nonApprovers.push(msg.sender);\r\n        }\r\n    }\r\n\r\n    function finalizeRequest(uint index) public payable onlyOwner {\r\n        uint totalWeightedApprovals = requests[index].nonApproverCount + (requests[index].approverCount * requests[index].weighted);\r\n        require(!requests[index].isCompleted, \"The request has already been finalized.\");\r\n        require(totalWeightedApprovals > (contributorCount / 2), \"The voting has not passed yet.\");\r\n        require(address(this).balance >= requests[index].requestFund, \"The total contribution to this campaign is not enough to pay the request.\");\r\n\r\n        payable(campaignOwner).transfer(requests[index].requestFund);\r\n        requests[index].isCompleted = true;\r\n        emit OwnerPaid(campaignOwner, requests[index].requestFund);\r\n\r\n        if (address(this).balance == 0) {\r\n            state = State.Finished;\r\n            emit CampaignFinished(campaignOwner, campaignName, campaignDescription, targetAmount, fundReceivedSoFar);\r\n        }\r\n    }\r\n\r\n    function receiveFund() external payable excludeOwner notInState(State.Finished) {\r\n        require(msg.value >= minimumPayment, \"Oops! Funding doesn't meet the minimum contribution.\");\r\n\r\n        if ((contributors[msg.sender]).contribution > 0) {\r\n            contributors[msg.sender].contribution += msg.value;\r\n        }\r\n        else {\r\n            contributors[msg.sender] = Contributor(false, msg.value);\r\n            ++contributorCount;\r\n        }\r\n\r\n        if (contributors[msg.sender].isApprover == false && contributors[msg.sender].contribution >= thresholdToBeApprover) {\r\n            contributors[msg.sender].isApprover = true;\r\n            ++approverCount;\r\n        }\r\n\r\n        fundReceivedSoFar += msg.value;\r\n        if (fundReceivedSoFar >= targetAmount) {\r\n            state = State.Successful;\r\n        }\r\n        emit FundingReceived(msg.sender, msg.value, fundReceivedSoFar);\r\n    }\r\n\r\n    function showCurrentBalance() public view returns(uint) {\r\n        return address(this).balance;\r\n    }\r\n\r\n    function hasVotedBefore(uint index, address _receipient) private view returns(bool) {\r\n        if (isApprover(_receipient)) {\r\n            uint _len = requests[index].approvers.length;\r\n            for (uint i = 0; i < _len; ++i) {\r\n                if (requests[index].approvers[i] == _receipient) {\r\n                    return true;\r\n                }\r\n            }\r\n        }\r\n        else {\r\n            uint _len = requests[index].nonApprovers.length;\r\n            for (uint i = 0; i < _len; ++i) {\r\n                if (requests[index].nonApprovers[i] == _receipient) {\r\n                    return true;\r\n                }\r\n            }\r\n        }\r\n        return false;\r\n    }\r\n\r\n    function isApprover(address _receipient) private view returns(bool) {\r\n        return contributors[_receipient].isApprover;\r\n    }\r\n\r\n    function getDetails() public view returns (\r\n        uint minPayment,\r\n        uint threshold,\r\n        address owner,\r\n        string memory name,\r\n        string memory description,\r\n        string memory image,\r\n        uint targetAmt,\r\n        uint fundReceived,\r\n        State campaignState,\r\n        uint balance,\r\n        uint contributorsCount,\r\n        uint approversCount\r\n    ){\r\n        minPayment = minimumPayment;\r\n        threshold = thresholdToBeApprover;\r\n        owner = campaignOwner;\r\n        name = campaignName;\r\n        description = campaignDescription;\r\n        image = imageUrl;\r\n        targetAmt = targetAmount;\r\n        fundReceived = fundReceivedSoFar;\r\n        campaignState = state;\r\n        balance = address(this).balance;\r\n        contributorsCount = contributorCount;\r\n        approversCount = approverCount;\r\n    }\r\n}",
  "sourcePath": "C:\\Work\\git\\wwblockchain_crowdfunding\\contracts\\CampaignFactory.sol",
  "compiler": {
    "name": "solc",
    "version": "0.8.13+commit.abaa5c0e.Emscripten.clang"
  },
  "schemaVersion": "3.4.5",
  "updatedAt": "2022-05-06T21:59:39.280Z",
  "devdoc": {
    "kind": "dev",
    "methods": {},
    "version": 1
  },
  "userdoc": {
    "kind": "user",
    "methods": {},
    "version": 1
  }
}